:100000000C9463000C948B000C948B000C940107EF
:100010000C9401070C9401070C948B000C948B003A
:100020000C948B000C948B000C948B000C948B0024
:100030000C948B000C948B000C948B000C948B0014
:100040000C945F060C948B000C94CF060C94A906BC
:100050000C948B000C948B000C948B000C948B00F4
:100060000C948B000C948B0000000008000201002F
:100070000003040700000000000000000000000072
:1000800023002600290000000000240027002A0089
:1000900000000000250028002B00040404040404D0
:1000A0000404020202020202030303030303010227
:1000B00004081020408001020408102001020408F6
:1000C0001020C5079B0B11241FBECFEFD8E0DEBF69
:1000D000CDBF25E0AAE5B3E001C01D92A538B20767
:1000E000E1F713E0A0E0B1E0EEEBFFE102C0059024
:1000F0000D92AA35B107D9F710E0C2E6D0E004C0EE
:100100002197FE010E94340DC136D107C9F70E9424
:10011000D2080C94D20F0C9400003FB7F894809151
:10012000A3039091A403A091A503B091A60326B5C3
:10013000A89B05C02F3F19F00196A11DB11D3FBF1F
:10014000BA2FA92F982F8827BC01CD01620F711DEE
:10015000811D911D42E0660F771F881F991F4A95E8
:10016000D1F708952FB7F89460919F037091A00381
:100170008091A1039091A2032FBF0895AF92BF92E7
:10018000CF92DF92EF92FF920F931F93CF93DF9363
:100190006C017B018B01040F151FEB015E01AE1892
:1001A000BF08C017D10759F06991D601ED91FC91B4
:1001B0000190F081E02DC6010995892B79F7C501E1
:1001C000DF91CF911F910F91FF90EF90DF90CF9033
:1001D000BF90AF900895FC01538D448D252F30E0E2
:1001E000842F90E0821B930B541710F0CF96089544
:1001F00001970895FC01918D828D981761F0A28D71
:10020000AE0FBF2FB11D5D968C91928D9F5F9F7336
:10021000928F90E008958FEF9FEF0895FC01918DEC
:10022000828D981731F0828DE80FF11D858D90E059
:1002300008958FEF9FEF0895FC01918D228D892FF6
:1002400090E0805C9F4F821B91098F7399270895DE
:1002500087EA93E00E941C0121E0892B09F420E049
:10026000822F089580E090E0892B29F00E942801D8
:1002700081110C9400000895FC01A48DA80FB92FE2
:10028000B11DA35ABF4F2C91848D90E001968F73BE
:100290009927848FA689B7892C93A089B1898C91DD
:1002A000837080648C93938D848D981306C002882C
:1002B000F389E02D80818F7D80830895EF92FF92F6
:1002C0000F931F93CF93DF93EC0181E0888F9B8D79
:1002D0008C8D98131AC0E889F989808185FF15C033
:1002E0009FB7F894EE89FF896083E889F989808156
:1002F0008370806480839FBF81E090E0DF91CF9125
:100300001F910F91FF90EF900895F62E0B8D10E046
:100310000F5F1F4F0F731127E02E8C8D8E110CC0B5
:100320000FB607FCFACFE889F989808185FFF5CF00
:10033000CE010E943C01F1CFEB8DEC0FFD2FF11DA2
:10034000E35AFF4FF0829FB7F8940B8FEA89FB893D
:1003500080818062CFCFCF93DF93EC01888D88239B
:10036000B9F0AA89BB89E889F9898C9185FD03C018
:10037000808186FD0DC00FB607FCF7CF8C9185FFFD
:10038000F2CF808185FFEDCFCE010E943C01E9CF05
:10039000DF91CF91089520919C0330919D03281700
:1003A000390771F490919A0380919B03981741F05B
:1003B000E0919A03F0E0E65AFC4F808190E00895C6
:1003C0008FEF9FEF08950895EF92FF920F931F9381
:1003D000CF93DF93DC015C96ED90FC905D97E11488
:1003E000F10479F481E090E013969C938E93129738
:1003F00090E080E0DF91CF911F910F91FF90EF90FF
:1004000008955196ED91FC91529750968C9150978A
:10041000982F90950FB75E962C915E97122F1270C1
:1004200021FD6095F8942081112319F1282B208358
:10043000E7012197F1F728E0462F50E0308160FF77
:100440001AC0382B3083E7012197F1F7BA0175956F
:100450006795215089F7112381F08081892380835A
:100460000FBF5C968D919C910197F1F781E090E030
:10047000C1CF2923DCCF3923E5CF9081892BEFCF62
:1004800020919C0330919D032817390761F48091D6
:100490009B0320919A0390E0805C9F4F821B9109FF
:1004A0008F739927089590E080E0089520919C0330
:1004B00030919D0328173907B9F490919A038091E0
:1004C0009B03981789F0E0919A03F0E0E65AFC4FFD
:1004D000808120919A0330E02F5F3F4F2F733327A5
:1004E00020939A0390E008958FEF9FEF089590E096
:1004F00080E008954F925F926F927F92AF92BF9289
:10050000CF92DF92EF92FF920F931F93CF93DF93DF
:10051000CDB7DEB7DA950FB6F894DEBF0FBECDBF0C
:100520005C017B018A018091440490914504DC01C7
:10053000ED91FC910084F185E02D0995A091440492
:10054000B0914504ED91FC911197892B31F0028413
:10055000F385E02DCD010995E6CF0280F381E02DF2
:1005600044E050E06AE071E0CD01099580914404D7
:1005700090914504DC01ED91FC910190F081E02D1A
:10058000B8016E5F7F4F09958091440490914504B6
:10059000DC01ED91FC910190F081E02D60E0099586
:1005A0008091440490914504DC01ED91FC9101900F
:1005B000F081E02D6A2D09958091440490914504C5
:1005C000DC01ED91FC910190F081E02D60E0099556
:1005D000E114F10481F00115110569F080914404E2
:1005E00090914504DC01ED91FC910280F381E02DB6
:1005F000A801B70109958091440490914504DC015C
:10060000ED91FC910280F381E02D44E050E066E042
:1006100071E009950E94B2002B013C0110E000E05E
:10062000F12CE12CD12CC12C0E94B2006419750967
:1006300086099709683E73408105910508F07DC0E1
:100640008091440490914504DC01ED91FC9100847B
:10065000F185E02D0995892B39F38091440490911F
:100660004504DC01ED91FC910284F385E02D0995B0
:10067000282F07301105C0F6F801EF5BFC4F0C94F2
:10068000340D4803500358035D036203670370038E
:1006900091E080E02D3F09F090E0092F182FC4CFA2
:1006A00002E010E08C3F09F4BFCF10E000E0BCCFC7
:1006B00003E010E08B3FC9F7B7CF04E010E08A3FBA
:1006C000A1F7B2CF6C01DD2405E010E0ADCF982F8B
:1006D0008827C82AD92AF12CE12C06E010E0A4CF03
:1006E000EC14FD0478F497012F5F3F4FE1E0F0E058
:1006F000EC0FFD1FEE0DFF1D808379012C153D05CC
:1007000008F492CF89819A81A816B90671F681E022
:10071000D3950FB6F894DEBF0FBECDBFDF91CF915A
:100720001F910F91FF90EF90DF90CF90BF90AF900F
:100730007F906F905F904F90089580E0E9CFFB012C
:1007400001900020E9F73197AF01461B570BDC0100
:10075000ED91FC910280F381E02D09948F929F929C
:10076000AF92BF920F931F93CF93DF93CDB7DEB7B6
:10077000A1970FB6F894DEBF0FBECDBF19A24230CD
:1007800008F44AE08E010F5D1F4F842E912CB12C8E
:10079000A12CA50194010E94120DE62FB901CA01F6
:1007A000EA3004F5E05DD801EE938D01232B242B74
:1007B000252B79F790E080E0109729F0BD0187EABA
:1007C00093E00E949F03A1960FB6F894DEBF0FBE80
:1007D000CDBFDF91CF911F910F91BF90AF909F90B0
:1007E0008F900895E95CDFCFCF93DF93BC0187EA58
:1007F00093E00E949F03EC0162E371E087EA93E0DB
:100800000E949F038C0F9D1FDF91CF910895FC01E3
:1008100080819181009711F00C947C0E08950F93C4
:100820001F93CF93DF93EC0188819981009759F052
:100830002A813B812617370730F081E0DF91CF9185
:100840001F910F9108958B016F5F7F4F0E94050FDD
:10085000009759F0998388831B830A832C813D81FB
:10086000232B59F7FC011082E8CF80E0E7CFEF920D
:10087000FF920F931F93CF93DF93EC017B018A01CB
:10088000BA010E940F0428813981811114C02115F9
:10089000310519F0C9010E947C0E198218821D824F
:1008A0001C821B821A82CE01DF91CF911F910F9182
:1008B000FF90EF9008951D830C83B701C9010E943A
:1008C000CB0FF1CFCF92DF92EF92FF920F931F9356
:1008D000CF93DF9300D000D000D0CDB7DEB7E0904B
:1008E0004604F0904704E114F10409F448C08C0177
:1008F0001A8219821C821B821E821D824DE050E0EA
:1009000065E371E0CE0101960E943704D801CD90D5
:10091000DC901197C114D10409F440C014960D91D4
:100920001C9101151105B1F08D819E81080F191FD1
:10093000B801CE0101960E940F04882379F1298124
:100940003A818D819E81B601820F931F0E94CB0F49
:100950001E830D834D815E8169817A81D701ED917E
:10096000FC910280F381E02DC701099562E371E0FB
:10097000C7010E949F03CE0101960E94070426969C
:100980000FB6F894DEBF0FBECDBFDF91CF911F91A0
:100990000F91FF90EF90DF90CF90089589819A8119
:1009A000009711F00E947C0E1A8219821E821D820D
:1009B0001C821B82CFCF2F923F924F925F926F92F9
:1009C0007F928F929F92AF92BF92CF92DF92EF92DF
:1009D000FF920F931F93CF93DF9300D000D000D0EE
:1009E000CDB7DEB798E0292E312C27E0422E512CCE
:1009F00036E0632E712C45E0E42EF12C54E0C52E38
:100A0000D12C63E0A62EB12C72E0872E912C01E050
:100A100010E08091440490914504DC01ED91FC913B
:100A20000084F185E02D0995892B09F42FC180916F
:100A3000440490914504DC01ED91FC910284F3851E
:100A4000E02D09959C01982FE0914A05F0914B0506
:100A5000EB30F105F0F6E15DFA4F0C94340D3A05F8
:100A600047055D056F0581058B05A405C005D30508
:100A7000E805FD05843F39F420934C0510934B05A0
:100A800000934A05C6CF8D3F09F0C3CFF5CF8091C3
:100A90004C05843F49F4933F59F420934D059092BF
:100AA0004B0580924A05B5CF8D3F11F49C3FA9F3C9
:100AB00010924B0510924A05ACCF80914C05843FB3
:100AC00049F4923FA9F720934E05B0924B05A092AE
:100AD0004A059FCF8D3F61F79B3F51F7F4CF80913F
:100AE0004C05843F49F4913F19F720934F05D0926C
:100AF0004B05C0924A058DCF8D3FD1F69A3FC1F686
:100B0000F4CF33273093550520935405F0924B05CD
:100B1000E0924A057ECF322F222780915405909192
:100B20005505282B392B30935505209354051092E9
:100B30005705109256052B3F310508F0B9CF70923A
:100B40004B0560924A0565CF8091560590915705F7
:100B5000AC014F5F5F4F50935705409356058C5B38
:100B60009B4FFC01248380915405909155054817B3
:100B7000590708F44ECF50924B0540924A0549CF91
:100B800080914C05843F41F4983F09F091CF309219
:100B90004B0520924A053DCF8D3F09F089CF943017
:100BA00009F086CFF4CF80914C05843F51F4973FF4
:100BB00009F07ECF89E090E090934B0580934A0541
:100BC00028CF8D3F09F074CF933009F071CFF2CF69
:100BD00080914C05843F51F4963F09F069CFAAE01B
:100BE000B0E0B0934B05A0934A0513CF8D3F09F0B9
:100BF0005FCF923009F05CCFF2CF80914C05843FFB
:100C000041F5953F09F054CF8091540590915505D9
:100C1000049709F04DCF8091480490914904A09128
:100C20004A04B0914B048093580590935905A093C2
:100C30005A05B0935B05B1E0B0935C050E94B20029
:100C400060935D0570935E0580935F0590936005EA
:100C50002FCF8D3F09F02CCF913009F029CF1A8288
:100C600019821C821B821E821D8246E150E063E4D1
:100C700071E0CE0101960E943704CE0101960E94D8
:100C80006204CE0101960E940704D8CF26960FB6C3
:100C9000F894DEBF0FBECDBFDF91CF911F910F91B2
:100CA000FF90EF90DF90CF90BF90AF909F908F908C
:100CB0007F906F905F904F903F902F9008951F927C
:100CC0000F920FB60F9211242F933F938F939F9300
:100CD000AF93BF9380919F039091A003A091A10334
:100CE000B091A20330919E0323E0230F2D3758F5D6
:100CF0000196A11DB11D20939E0380939F039093A5
:100D0000A003A093A103B093A2038091A3039091A9
:100D1000A403A091A503B091A6030196A11DB11D46
:100D20008093A3039093A403A093A503B093A60379
:100D3000BF91AF919F918F913F912F910F900FBED7
:100D40000F901F90189526E8230F0296A11DB11D44
:100D5000D2CF1F920F920FB60F9211242F933F9371
:100D60004F935F936F937F938F939F93AF93BF93B3
:100D7000EF93FF9387EA93E00E943C01FF91EF918C
:100D8000BF91AF919F918F917F916F915F914F91A3
:100D90003F912F910F900FBE0F901F9018951F92AB
:100DA0000F920FB60F9211242F938F939F93EF936F
:100DB000FF93E091B703F091B8038081E091BD0308
:100DC000F091BE0382FD1BC090818091C0038F5FB4
:100DD0008F732091C103821741F0E091C003F0E0CE
:100DE000E955FC4F958F8093C003FF91EF919F9140
:100DF0008F912F910F900FBE0F901F9018958081AB
:100E0000F4CF1F920F920FB60F9211242F933F939E
:100E10004F935F936F937F938F939F93AF93BF9302
:100E2000EF93FF93E0919C03F0919D03309749F07D
:100E3000A685B7858585968D91FF14C09C918923E1
:100E4000A1F4FF91EF91BF91AF919F918F917F910D
:100E50006F915F914F913F912F910F900FBE0F9027
:100E60001F9018959C91892361F7A389B4899C915F
:100E70008589809589238C93868997890197F1F7D5
:100E8000608D718DA685B785558538E020E0CB0152
:100E90000197F1F7822F90E095958795282F4C9137
:100EA000452309F02068315091F7868D81FD20950A
:100EB00080919B0390E001968F73992730919A035C
:100EC000381799F0A0919B03B0E0A65ABC4F2C9321
:100ED00080939B03828D938D0197F1F7A389B48949
:100EE0008C919589892B8C93ACCF868D8160868F70
:100EF000F1CF90E0FC01E859FF4F2491FC01E2554D
:100F0000FF4F3491FC01E656FF4FE491EE23C9F008
:100F1000222339F0233001F1A8F4213019F12230D5
:100F200029F1F0E0EE0FFF1FE057FF4FA591B491BC
:100F30008FB7F894EC91611126C030953E233C9315
:100F40008FBF08952730A9F02830C9F0243049F721
:100F5000809180008F7D03C0809180008F77809387
:100F60008000DFCF84B58F7784BDDBCF84B58F7DE4
:100F7000FBCF8091B0008F778093B000D2CF80916B
:100F8000B0008F7DF9CF3E2BDACF0F931F93CF9315
:100F9000DF931092AA031092A90388EE93E0A0E0D9
:100FA000B0E08093AB039093AC03A093AD03B093F8
:100FB000AE0322E131E03093A8032093A70325EC90
:100FC00030E03093B4032093B30324EC30E030934B
:100FD000B6032093B50320EC30E03093B8032093A0
:100FE000B70321EC30E03093BA032093B90322EC2D
:100FF00030E03093BC032093BB0326EC30E0309309
:10100000BE032093BD031092C0031092C10310923F
:10101000C2031092C3031092650510926405809379
:10102000660590936705A0936805B093690584E20F
:1010300091E0909363058093620510927905109278
:10104000780510927B0510927A0510927D0510921A
:101050007C0510927F0510927E05609180056E7F61
:101060006D7F609380056695617081E0682783E0FD
:101070000E94790741EB50E0FA0164918DE990E01C
:10108000FC012491222399F030E0220F331FF90153
:10109000EA57FF4FA591B491F901E057FF4F259111
:1010A00034912FB7F8943C91632B6C932FBFFA01C6
:1010B000449140937205FC018491E82FF0E0EE0F1B
:1010C000FF1FE057FF4F8591949190937405809393
:1010D000730500EB10E0F8012491CCE9D0E0FE01AB
:1010E00084918823C9F090E0880F991FFC01EA578A
:1010F000FF4FA591B491FC01E057FF4F45915491EA
:101100003FB7F8949C91822F809598239C93FA0185
:101110009081892380833FBF8091800581FD04C039
:1011200061E082E00E94790782E080936E05F80119
:10113000049100936F05FE01C491EC2FF0E0EE0FD7
:10114000FF1FE458FF4F8591949190937105809310
:1011500070051092450410924404109249051092B3
:10116000480510924B0510924A05109258051092AE
:10117000590510925A0510925B0510925C05109269
:101180005D0510925E0510925F0510926005109249
:1011900061051092470410924604DF91CF911F9190
:1011A0000F910895CF93DF9300D000D000D0CDB73A
:1011B000DEB7789484B5826084BD84B5816084BDD7
:1011C00085B5826085BD85B5816085BD80916E00E5
:1011D000816080936E001092810080918100826016
:1011E0008093810080918100816080938100809153
:1011F00080008160809380008091B1008460809342
:10120000B1008091B00081608093B00080917A003D
:10121000846080937A0080917A00826080937A0063
:1012200080917A00816080937A0080917A00806852
:1012300080937A001092C100E091B703F091B80357
:1012400082E08083E091B303F091B4031082E091D7
:10125000B503F091B60380E180831092BF03E09163
:10126000BB03F091BC0386E08083E091B903F09169
:10127000BA03808180618083E091B903F091BA0361
:10128000808188608083E091B903F091BA03808106
:1012900080688083E091B903F091BA0380818F7DEB
:1012A00080830E948D004B015C0180EDC82E87E099
:1012B000D82EE12CF12C0E948D00681979098A0939
:1012C0009B09683E734081059105A8F321E0C21A8D
:1012D000D108E108F10888EE880E83E0981EA11C71
:1012E000B11CC114D104E104F10429F78AE591E0AD
:1012F0000E94F40310927D0510927C0510927B05EC
:1013000010927A0510927905109278058FE190E09D
:1013100090937F0580937E0590916E05963108F03D
:1013200047C021E030E030937905209378052DE126
:1013300030E030937B0520937A052DE030E0309348
:101340007D0520937C052091680084E0983048F06A
:1013500031E09E3008F430E081E001C0880F3A951A
:10136000EAF7822B809368002DE630E0983050F049
:101370002BE630E09E3030F02CE630E0963110F075
:1013800030E020E03093760520937505292F30E07A
:10139000983008F040C181E001C0880F9A95EAF7C3
:1013A0008093770580917E0590917F050197F1F7F5
:1013B00080917C0590917D05892B49F1E0919C03FA
:1013C000F0919D0385E0E236F80709F1309739F096
:1013D000A389B4899C918589809589238C93809178
:1013E00080058E7F8093800510929B0310929A0354
:1013F00082E695E090939D0380939C03E0917505B0
:10140000F0917605808190917705892B808382E623
:1014100095E0909345048093440487EA93E0909389
:1014200047048093460410924B0510924A051A8295
:1014300019821C821B821E821D8246E150E06BE7EE
:1014400071E0CE0101960E943704CE0101960E9400
:101450006204CE0101960E94070482E991E00E9495
:10146000F4030E94B2006B017C010E94B2006C196F
:101470007D098E099F09683B7B408105910508F035
:1014800051C18091440490914504892B11F00E9430
:10149000DB0480915C0510925C05882331F38FECAE
:1014A00092E00E94F40388EB91E00E94F40311E0C3
:1014B00019831A828091440490914504892B09F480
:1014C00034C142E050E0BE016F5F7F4F8FEF90E08C
:1014D0000E947A02882309F428C1109361058AEDDD
:1014E00091E00E94F40386EF91E00E94F40384E609
:1014F00089831A828091440490914504892B09F4D0
:1015000097C042E050E0BE016F5F7F4F81E790E0FF
:101510000E947A02882309F48BC082E292E00E9442
:10152000F4038FE492E00E94F403809144049091CC
:101530004504892B09F4FCC050E040E070E060E015
:101540008EEF90E00E947A02882309F4F1C0109295
:10155000610580E792E00E94F4038BE892E00E942C
:10156000F40381EA92E00E94F40300E010E080912D
:10157000440490914504892B11F00E94DB04809172
:101580005C0510925C058823D1F164EB72E087EA78
:1015900093E00E949F03C0905805D0905905E090B9
:1015A0005A05F0905B05A7019601C701B6010E949C
:1015B000DB0D6FEB72E081111AC046015701E89410
:1015C000B7F82FEF3FEF4FE75FE7C501B4010E9487
:1015D000DB0D811130C02FEF3FEF4FE75FE7C50113
:1015E000B4010E94B70B181634F563EC72E087EA79
:1015F00093E00E949F038BEC92E00E94F40301159C
:10160000110509F4B4CF0E942801882309F4AFCF53
:101610000E940000ACCF9E3040F42850310981E098
:1016200001C0880F2A95EAF7BBCE2E503109F7CFBB
:1016300085E392E074CF2FEF3FEF4FE75FE4C70100
:10164000B6010E94D60D18161CF467EC72E0CFCFDD
:101650002FEF3FEF4FE75FECC701B6010E94B70BDA
:1016600087FDF3CF20E030E0A901C701B6010E9459
:10167000B70B87FF09C06DE287EA93E00E945E0125
:10168000F7FAF094F7F8F0942AE037ED43EA5BE3D9
:10169000C701B6010E943B0D4B015C010E94A70DE2
:1016A0006B017C010E94BC0B9B01AC01C501B40124
:1016B0000E943A0D4B015C014AE0C701B6010E944D
:1016C000AE036EE287EA93E00E945E0120E030E024
:1016D00040E251E4C501B4010E941D0C4B015C01C4
:1016E0000E94A70D6B01F12CE12C4AE0C701B60165
:1016F0000E94AE03C701B6010E94BC0B9B01AC0166
:10170000C501B4010E943A0D20E030E040E251E40E
:101710000E941D0C0E94A70D90E080E04AE00E940C
:10172000AE0369CF83EF92E0BCCE8AE193E013CFA2
:101730008EE393E010CF84E291E090936305809371
:10174000620580919C0390919D038256954071F4AF
:10175000E0917505F09176059081809177058095EF
:101760008923808310929D0310929C0308950E9408
:10177000F90B08F481E00895E89409C097FB3EF462
:1017800090958095709561957F4F8F4F9F4F9923CE
:10179000A9F0F92F96E9BB279395F695879577954C
:1017A0006795B795F111F8CFFAF4BB0F11F460FF0C
:1017B0001BC06F5F7F4F8F4F9F4F16C0882311F064
:1017C00096E911C0772321F09EE8872F762F05C078
:1017D000662371F096E8862F70E060E02AF09A9513
:1017E000660F771F881FDAF7880F9695879597F908
:1017F0000895990F0008550FAA0BE0E8FEEF1616A2
:101800001706E807F907C0F012161306E407F507F4
:1018100098F0621B730B840B950B39F40A2661F068
:10182000232B242B252B21F408950A2609F4A1400B
:10183000A6958FEF811D811D08950E94300C0C9498
:10184000A10C0E94930C38F00E949A0C20F0952372
:1018500011F00C948A0C0C94900C11240C94D50C5F
:101860000E94B20C70F3959FC1F3950F50E0551F85
:10187000629FF001729FBB27F00DB11D639FAA27E5
:10188000F00DB11DAA1F649F6627B00DA11D661F34
:10189000829F2227B00DA11D621F739FB00DA11D55
:1018A000621F839FA00D611D221F749F3327A00D0F
:1018B000611D231F849F600D211D822F762F6A2FAB
:1018C00011249F5750409AF0F1F088234AF0EE0F10
:1018D000FF1FBB1F661F771F881F91505040A9F73D
:1018E0009E3F510580F00C948A0C0C94D50C5F3F00
:1018F000E4F3983ED4F3869577956795B795F79579
:10190000E7959F5FC1F7FE2B880F911D96958795F0
:1019100097F9089597F99F6780E870E060E008956F
:101920009FEF80EC089500240A94161617061806F7
:101930000906089500240A941216130614060506D3
:101940000895092E0394000C11F4882352F0BB0F64
:1019500040F4BF2B11F460FF04C06F5F7F4F8F4FC7
:101960009F4F089557FD9058440F551F59F05F3F02
:1019700071F04795880F97FB991F61F09F3F79F0B1
:1019800087950895121613061406551FF2CF469533
:10199000F1DF08C0161617061806991FF1CF8695B5
:1019A0007105610508940895E894BB276627772799
:1019B000CB0197F908952F923F924F925F926F92C9
:1019C0007F928F929F92AF92BF92CF92DF92EF92CF
:1019D000FF920F931F93CF93DF93CDB7DEB7CA1B50
:1019E000DB0B0FB6F894DEBF0FBECDBF09942A887B
:1019F000398848885F846E847D848C849B84AA8423
:101A0000B984C884DF80EE80FD800C811B81AA81AF
:101A1000B981CE0FD11D0FB6F894DEBF0FBECDBF7A
:101A2000ED010895A1E21A2EAA1BBB1BFD010DC0FA
:101A3000AA1FBB1FEE1FFF1FA217B307E407F5077E
:101A400020F0A21BB30BE40BF50B661F771F881F5A
:101A5000991F1A9469F760957095809590959B01F0
:101A6000AC01BD01CF010895EE0FFF1F0590F49169
:101A7000E02D09945058BB27AA270E94520D0C94C0
:101A8000A10C0E94930C38F00E949A0C20F039F4BB
:101A90009F3F19F426F40C94900C0EF4E095E7FBAC
:101AA0000C948A0CE92F0E94B20C58F3BA17620703
:101AB00073078407950720F079F4A6F50C94D40CED
:101AC0000EF4E0950B2EBA2FA02D0B01B901900159
:101AD0000C01CA01A0011124FF27591B99F0593F9D
:101AE00050F4503E68F11A16F040A22F232F342FE5
:101AF0004427585FF3CF469537952795A795F04033
:101B00005395C9F77EF41F16BA0B620B730B840B47
:101B1000BAF09150A1F0FF0FBB1F661F771F881FFF
:101B2000C2F70EC0BA0F621F731F841F48F4879557
:101B300077956795B795F7959E3F08F0B0CF939549
:101B4000880F08F09927EE0F9795879508950E94C2
:101B5000BA0C88F09F5798F0B92F9927B751B0F079
:101B6000E1F0660F771F881F991F1AF0BA95C9F721
:101B700014C0B13091F00E94D40CB1E008950C94DF
:101B8000D40C672F782F8827B85F39F0B93FCCF392
:101B9000869577956795B395D9F73EF4909580959E
:101BA000709561957F4F8F4F9F4F08950E94F90B5D
:101BB00008F48FEF08950E94F90B880B990B089594
:101BC0000F931F93CF93DF938230910510F482E03F
:101BD00090E0E0918305F091840530E020E0B0E0F2
:101BE000A0E0309799F42115310509F44AC0281B6B
:101BF000390B24303105D8F58A819B816115710537
:101C000089F1FB0193838283FE0111C040815181E0
:101C10000281138148175907E0F04817590799F4D2
:101C2000109761F012960C93129713961C933296AC
:101C3000CF01DF91CF911F910F91089500938305FC
:101C400010938405F4CF2115310551F04217530745
:101C500038F0A901DB019A01BD01DF01F801C1CF14
:101C6000EF01F9CF9093840580938305CDCFFE01DA
:101C7000E20FF31F81939193225031093983288316
:101C8000D7CF2091810530918205232B41F42091FB
:101C90000201309103013093820520938105209148
:101CA0000001309101012115310541F42DB73EB7F6
:101CB0004091040150910501241B350BE0918105F1
:101CC000F0918205E217F307A0F42E1B3F0B2817B3
:101CD000390778F0AC014E5F5F4F2417350748F0A5
:101CE0004E0F5F1F5093820540938105819391931E
:101CF0009FCFF0E0E0E09CCFCF93DF930097E9F037
:101D0000FC01329713821282A0918305B091840561
:101D1000ED0130E020E01097A1F420813181820FA5
:101D2000931F20918105309182052817390709F00A
:101D300061C0F0938205E0938105DF91CF91089512
:101D4000EA01CE17DF07E8F54A815B819E01411564
:101D50005105B1F7E901FB83EA8349915991C40F19
:101D6000D51FEC17FD0761F4808191810296840FE5
:101D7000951FE90199838883828193819B838A835C
:101D8000F0E0E0E012968D919C9113970097B9F5E1
:101D90002D913C911197CD010296820F931F2091B6
:101DA0008105309182052817390739F6309751F5AA
:101DB0001092840510928305B0938205A09381054B
:101DC000BCCFD383C28340815181840F951FC81734
:101DD000D90761F44E5F5F4F88819981480F591F81
:101DE000518340838A819B819383828321153105AE
:101DF00009F0B0CFF0938405E09383059ECFFD01F9
:101E0000DC01C0CF13821282D7CFB0E0A0E0EBE0BC
:101E1000FFE00C94DD0C8C01009751F4CB010E9483
:101E2000E00D8C01C801CDB7DEB7E0E10C94F90CF0
:101E3000FC01E60FF71F9C0122503109E217F3075E
:101E400008F49DC0D901CD91DC911197C617D70731
:101E500098F0C530D10530F3CE0104978617970767
:101E600008F3C61BD70B2297C193D1936D937C9334
:101E7000CF010E947C0ED6CF5B01AC1ABD0A4C018B
:101E80008C0E9D1EA0918305B0918405512C412C90
:101E9000F12CE12C109731F580918105909182050C
:101EA0008815990509F05CC04616570608F058C019
:101EB0008091000190910101009741F48DB79EB788
:101EC0004091040150910501841B950BE817F90717
:101ED00008F055C0F0938205E0938105F901718304
:101EE0006083A0CF8D919C91119712966C90129760
:101EF00013967C901397A815B90559F56C0142E02B
:101F0000C40ED11CCA14DB0420F1AC014A195B09D0
:101F1000DA011296159780F06282738251834083B2
:101F2000D9016D937C93E114F10471F0D7011396FC
:101F3000FC93EE93129776CF22968C0F9D1FF9019A
:101F400091838083F301EFCFF0938405E0938305C1
:101F500069CF4816590608F42C017D01D3019ACFA8
:101F6000CB010E94E00D7C01009749F0AE01B80161
:101F70000E94C20FC8010E947C0E870153CF10E05F
:101F800000E050CFFB01DC0102C001900D924150F6
:101F90005040D8F70895FB01DC0101900D9200201C
:101FA000E1F7089510E0C2E6D0E004C0FE010E940F
:0E1FB000340D2196C336D107C9F7F894FFCF40
:101FBE0000008505800004030201FDFCFBFA000011
:101FCE0000005E01BE00EB00AB011C01FA000E0129
:101FDE0000000000E401BE007702E3014002560259
:101FEE00CB010D0A005B484C4B2D4C44323431333F
:101FFE005D2000526563656976656420436F6E6689
:10200E006967205061636B6574000A0A2D2D2D20BF
:10201E00484C4B2D4C4432343133204D414E5541BA
:10202E004C2054455354202D2D2D00484C4B2D4CF7
:10203E00443234313320496E697469616C697A6552
:10204E0064005B544553545D20312E204368656314
:10205E006B696E6720436F6E6E656374696F6E2079
:10206E00283373292E2E2E005B544553545D203297
:10207E002E20456E746572696E6720436F6E6669B9
:10208E0067204D6F64652E2E2E005B504153535DBD
:10209E0020436F6E666967204D6F646520456E74D0
:1020AE00657265642E005B544553545D20332E20BB
:1020BE0053657474696E67205265706F7274205028
:1020CE006572696F6420746F203130306D732E2EFF
:1020DE002E005B504153535D20506572696F642032
:1020EE005365742E005B4641494C5D205365742048
:1020FE00506572696F64204661696C65642E005B81
:10210E00544553545D20342E2045786974696E67AA
:10211E0020436F6E666967204D6F64652E2E2E000C
:10212E005B504153535D20436F6E666967204D6F60
:10213E006465204578697465642E002D2D2D20541C
:10214E0045535420434F4D504C455445202D2D2D75
:10215E00004D6F6E69746F72696E67206461746191
:10216E002E2E2E0044697374616E63653A20006EE4
:10217E00616E00696E66006F766600206D6D005BA5
:10218E00504153535D2053656E736F7220697320F7
:10219E007472616E736D697474696E6720646174B4
:1021AE00612E005B4641494C5D204E6F2064617488
:1021BE00612072656365697665642E204368656388
:1021CE006B20776972696E672E005B4641494C5DE4
:1021DE0020436F756C64206E6F7420656E7465722B
:1021EE0020436F6E666967204D6F64652E005B46F7
:1021FE0041494C5D204578697420436F6E6669676E
:0A220E00204661696C65642E000033
:00000001FF
